{
  "_format": "hh-sol-artifact-1",
  "contractName": "MerkleDistributor",
  "sourceName": "contracts/MerkleDistributor.sol",
  "abi": [
    {
      "inputs": [
        {
          "internalType": "bytes32",
          "name": "merkleRoot_",
          "type": "bytes32"
        },
        {
          "internalType": "uint256",
          "name": "dropAmount_",
          "type": "uint256"
        }
      ],
      "stateMutability": "nonpayable",
      "type": "constructor"
    },
    {
      "inputs": [],
      "name": "InvalidProof",
      "type": "error"
    },
    {
      "anonymous": false,
      "inputs": [
        {
          "indexed": true,
          "internalType": "address",
          "name": "account",
          "type": "address"
        },
        {
          "indexed": true,
          "internalType": "address",
          "name": "operator",
          "type": "address"
        },
        {
          "indexed": false,
          "internalType": "bool",
          "name": "approved",
          "type": "bool"
        }
      ],
      "name": "ApprovalForAll",
      "type": "event"
    },
    {
      "anonymous": false,
      "inputs": [
        {
          "indexed": true,
          "internalType": "address",
          "name": "account",
          "type": "address"
        },
        {
          "indexed": false,
          "internalType": "uint256",
          "name": "_dropAmount",
          "type": "uint256"
        }
      ],
      "name": "Claimed",
      "type": "event"
    },
    {
      "anonymous": false,
      "inputs": [
        {
          "indexed": true,
          "internalType": "address",
          "name": "operator",
          "type": "address"
        },
        {
          "indexed": true,
          "internalType": "address",
          "name": "from",
          "type": "address"
        },
        {
          "indexed": true,
          "internalType": "address",
          "name": "to",
          "type": "address"
        },
        {
          "indexed": false,
          "internalType": "uint256[]",
          "name": "ids",
          "type": "uint256[]"
        },
        {
          "indexed": false,
          "internalType": "uint256[]",
          "name": "values",
          "type": "uint256[]"
        }
      ],
      "name": "TransferBatch",
      "type": "event"
    },
    {
      "anonymous": false,
      "inputs": [
        {
          "indexed": true,
          "internalType": "address",
          "name": "operator",
          "type": "address"
        },
        {
          "indexed": true,
          "internalType": "address",
          "name": "from",
          "type": "address"
        },
        {
          "indexed": true,
          "internalType": "address",
          "name": "to",
          "type": "address"
        },
        {
          "indexed": false,
          "internalType": "uint256",
          "name": "id",
          "type": "uint256"
        },
        {
          "indexed": false,
          "internalType": "uint256",
          "name": "value",
          "type": "uint256"
        }
      ],
      "name": "TransferSingle",
      "type": "event"
    },
    {
      "anonymous": false,
      "inputs": [
        {
          "indexed": false,
          "internalType": "string",
          "name": "value",
          "type": "string"
        },
        {
          "indexed": true,
          "internalType": "uint256",
          "name": "id",
          "type": "uint256"
        }
      ],
      "name": "URI",
      "type": "event"
    },
    {
      "inputs": [
        {
          "internalType": "address",
          "name": "account",
          "type": "address"
        },
        {
          "internalType": "uint256",
          "name": "id",
          "type": "uint256"
        }
      ],
      "name": "balanceOf",
      "outputs": [
        {
          "internalType": "uint256",
          "name": "",
          "type": "uint256"
        }
      ],
      "stateMutability": "view",
      "type": "function"
    },
    {
      "inputs": [
        {
          "internalType": "address[]",
          "name": "accounts",
          "type": "address[]"
        },
        {
          "internalType": "uint256[]",
          "name": "ids",
          "type": "uint256[]"
        }
      ],
      "name": "balanceOfBatch",
      "outputs": [
        {
          "internalType": "uint256[]",
          "name": "",
          "type": "uint256[]"
        }
      ],
      "stateMutability": "view",
      "type": "function"
    },
    {
      "inputs": [
        {
          "internalType": "bytes32[]",
          "name": "merkleProof",
          "type": "bytes32[]"
        }
      ],
      "name": "claim",
      "outputs": [],
      "stateMutability": "nonpayable",
      "type": "function"
    },
    {
      "inputs": [],
      "name": "dropAmount",
      "outputs": [
        {
          "internalType": "uint256",
          "name": "",
          "type": "uint256"
        }
      ],
      "stateMutability": "view",
      "type": "function"
    },
    {
      "inputs": [
        {
          "internalType": "address",
          "name": "account",
          "type": "address"
        },
        {
          "internalType": "address",
          "name": "operator",
          "type": "address"
        }
      ],
      "name": "isApprovedForAll",
      "outputs": [
        {
          "internalType": "bool",
          "name": "",
          "type": "bool"
        }
      ],
      "stateMutability": "view",
      "type": "function"
    },
    {
      "inputs": [],
      "name": "merkleRoot",
      "outputs": [
        {
          "internalType": "bytes32",
          "name": "",
          "type": "bytes32"
        }
      ],
      "stateMutability": "view",
      "type": "function"
    },
    {
      "inputs": [],
      "name": "nextID",
      "outputs": [
        {
          "internalType": "uint256",
          "name": "",
          "type": "uint256"
        }
      ],
      "stateMutability": "view",
      "type": "function"
    },
    {
      "inputs": [
        {
          "internalType": "address",
          "name": "from",
          "type": "address"
        },
        {
          "internalType": "address",
          "name": "to",
          "type": "address"
        },
        {
          "internalType": "uint256[]",
          "name": "ids",
          "type": "uint256[]"
        },
        {
          "internalType": "uint256[]",
          "name": "amounts",
          "type": "uint256[]"
        },
        {
          "internalType": "bytes",
          "name": "data",
          "type": "bytes"
        }
      ],
      "name": "safeBatchTransferFrom",
      "outputs": [],
      "stateMutability": "nonpayable",
      "type": "function"
    },
    {
      "inputs": [
        {
          "internalType": "address",
          "name": "from",
          "type": "address"
        },
        {
          "internalType": "address",
          "name": "to",
          "type": "address"
        },
        {
          "internalType": "uint256",
          "name": "id",
          "type": "uint256"
        },
        {
          "internalType": "uint256",
          "name": "amount",
          "type": "uint256"
        },
        {
          "internalType": "bytes",
          "name": "data",
          "type": "bytes"
        }
      ],
      "name": "safeTransferFrom",
      "outputs": [],
      "stateMutability": "nonpayable",
      "type": "function"
    },
    {
      "inputs": [
        {
          "internalType": "address",
          "name": "operator",
          "type": "address"
        },
        {
          "internalType": "bool",
          "name": "approved",
          "type": "bool"
        }
      ],
      "name": "setApprovalForAll",
      "outputs": [],
      "stateMutability": "nonpayable",
      "type": "function"
    },
    {
      "inputs": [
        {
          "internalType": "bytes4",
          "name": "interfaceId",
          "type": "bytes4"
        }
      ],
      "name": "supportsInterface",
      "outputs": [
        {
          "internalType": "bool",
          "name": "",
          "type": "bool"
        }
      ],
      "stateMutability": "view",
      "type": "function"
    },
    {
      "inputs": [
        {
          "internalType": "uint256",
          "name": "",
          "type": "uint256"
        }
      ],
      "name": "uri",
      "outputs": [
        {
          "internalType": "string",
          "name": "",
          "type": "string"
        }
      ],
      "stateMutability": "view",
      "type": "function"
    }
  ],
  "bytecode": "0x60a06040525f60045534801562000014575f80fd5b5060405162001b5438038062001b54833981016040819052620000379162000072565b60408051602081019091525f8152620000508162000060565b50608091909152600355620001fd565b60026200006e828262000135565b5050565b5f806040838503121562000084575f80fd5b505080516020909101519092909150565b634e487b7160e01b5f52604160045260245ffd5b600181811c90821680620000be57607f821691505b602082108103620000dd57634e487b7160e01b5f52602260045260245ffd5b50919050565b601f82111562000130575f81815260208120601f850160051c810160208610156200010b5750805b601f850160051c820191505b818110156200012c5782815560010162000117565b5050505b505050565b81516001600160401b0381111562000151576200015162000095565b6200016981620001628454620000a9565b84620000e3565b602080601f8311600181146200019f575f8415620001875750858301515b5f19600386901b1c1916600185901b1785556200012c565b5f85815260208120601f198616915b82811015620001cf57888601518255948401946001909101908401620001ae565b5085821015620001ed57878501515f19600388901b60f8161c191681555b5050505050600190811b01905550565b6080516119376200021d5f395f818161016701526106ab01526119375ff3fe608060405234801561000f575f80fd5b50600436106100ce575f3560e01c80632eb4a7ab1161007d578063b391c50811610058578063b391c508146101bc578063e985e9c5146101cf578063f242432a1461020a575f80fd5b80632eb4a7ab146101625780634e1273f414610189578063a22cb465146101a9575f80fd5b80630e89341c116100ad5780630e89341c146101245780631e96917d146101445780632eb2c2d61461014d575f80fd5b8062fdd58e146100d257806301ffc9a7146100f857806305748be21461011b575b5f80fd5b6100e56100e03660046111f8565b61021d565b6040519081526020015b60405180910390f35b61010b610106366004611238565b6102c7565b60405190151581526020016100ef565b6100e560035481565b610137610132366004611253565b610361565b6040516100ef91906112ad565b6100e560045481565b61016061015b366004611401565b6103f3565b005b6100e57f000000000000000000000000000000000000000000000000000000000000000081565b61019c6101973660046114a4565b610495565b6040516100ef91906115a2565b6101606101b73660046115b4565b6105d1565b6101606101ca3660046115ed565b6105e0565b61010b6101dd36600461165c565b6001600160a01b039182165f90815260016020908152604080832093909416825291909152205460ff1690565b61016061021836600461168d565b61076f565b5f6001600160a01b03831661029f5760405162461bcd60e51b815260206004820152602a60248201527f455243313135353a2061646472657373207a65726f206973206e6f742061207660448201527f616c6964206f776e65720000000000000000000000000000000000000000000060648201526084015b60405180910390fd5b505f818152602081815260408083206001600160a01b03861684529091529020545b92915050565b5f6001600160e01b031982167fd9b67a2600000000000000000000000000000000000000000000000000000000148061032957506001600160e01b031982167f0e89341c00000000000000000000000000000000000000000000000000000000145b806102c157507f01ffc9a7000000000000000000000000000000000000000000000000000000006001600160e01b03198316146102c1565b606060028054610370906116ed565b80601f016020809104026020016040519081016040528092919081815260200182805461039c906116ed565b80156103e75780601f106103be576101008083540402835291602001916103e7565b820191905f5260205f20905b8154815290600101906020018083116103ca57829003601f168201915b50505050509050919050565b6001600160a01b03851633148061040f575061040f85336101dd565b6104815760405162461bcd60e51b815260206004820152602e60248201527f455243313135353a2063616c6c6572206973206e6f7420746f6b656e206f776e60448201527f6572206f7220617070726f7665640000000000000000000000000000000000006064820152608401610296565b61048e858585858561080a565b5050505050565b6060815183511461050e5760405162461bcd60e51b815260206004820152602960248201527f455243313135353a206163636f756e747320616e6420696473206c656e67746860448201527f206d69736d6174636800000000000000000000000000000000000000000000006064820152608401610296565b5f835167ffffffffffffffff811115610529576105296112bf565b604051908082528060200260200182016040528015610552578160200160208202803683370190505b5090505f5b84518110156105c95761059c85828151811061057557610575611725565b602002602001015185838151811061058f5761058f611725565b602002602001015161021d565b8282815181106105ae576105ae611725565b60209081029190910101526105c28161174d565b9050610557565b509392505050565b6105dc338383610a78565b5050565b335f9081526005602052604090205460ff161561063f5760405162461bcd60e51b815260206004820152600f60248201527f416c726561647920636c61696d656400000000000000000000000000000000006044820152606401610296565b6040516bffffffffffffffffffffffff193360601b1660208201525f906034016040516020818303038152906040528051906020012090506106d68383808060200260200160405190810160405280939291908181526020018383602002808284375f920191909152507f00000000000000000000000000000000000000000000000000000000000000009250859150610b6b9050565b61070c576040517f09bde33900000000000000000000000000000000000000000000000000000000815260040160405180910390fd5b335f818152600560205260409020805460ff191660011790556003546107329190610b80565b60035460405190815233907fd8138f8a3f377c5259ca548e70e4c2de94f129f5a11036a15b69513cba2b426a9060200160405180910390a2505050565b6001600160a01b03851633148061078b575061078b85336101dd565b6107fd5760405162461bcd60e51b815260206004820152602e60248201527f455243313135353a2063616c6c6572206973206e6f7420746f6b656e206f776e60448201527f6572206f7220617070726f7665640000000000000000000000000000000000006064820152608401610296565b61048e8585858585610bb0565b81518351146108815760405162461bcd60e51b815260206004820152602860248201527f455243313135353a2069647320616e6420616d6f756e7473206c656e6774682060448201527f6d69736d617463680000000000000000000000000000000000000000000000006064820152608401610296565b6001600160a01b0384166108e55760405162461bcd60e51b815260206004820152602560248201527f455243313135353a207472616e7366657220746f20746865207a65726f206164604482015264647265737360d81b6064820152608401610296565b335f5b8451811015610a0a575f85828151811061090457610904611725565b602002602001015190505f85838151811061092157610921611725565b6020908102919091018101515f84815280835260408082206001600160a01b038e1683529093529190912054909150818110156109b35760405162461bcd60e51b815260206004820152602a60248201527f455243313135353a20696e73756666696369656e742062616c616e636520666f60448201526939103a3930b739b332b960b11b6064820152608401610296565b5f838152602081815260408083206001600160a01b038e8116855292528083208585039055908b168252812080548492906109ef908490611765565b9250508190555050505080610a039061174d565b90506108e8565b50846001600160a01b0316866001600160a01b0316826001600160a01b03167f4a39dc06d4c0dbc64b70af90fd698a233a518aa5d07e595d983b8c0526c8f7fb8787604051610a5a929190611778565b60405180910390a4610a70818787878787610d57565b505050505050565b816001600160a01b0316836001600160a01b031603610aff5760405162461bcd60e51b815260206004820152602960248201527f455243313135353a2073657474696e6720617070726f76616c2073746174757360448201527f20666f722073656c6600000000000000000000000000000000000000000000006064820152608401610296565b6001600160a01b038381165f81815260016020908152604080832094871680845294825291829020805460ff191686151590811790915591519182527f17307eab39ab6107e8899845ad3d59bd9653f200f220920489ca2b5937696c31910160405180910390a3505050565b5f82610b778584610f04565b14949350505050565b60048054905f610b8f8361174d565b91905055506105dc826004548360405180602001604052805f815250610f48565b6001600160a01b038416610c145760405162461bcd60e51b815260206004820152602560248201527f455243313135353a207472616e7366657220746f20746865207a65726f206164604482015264647265737360d81b6064820152608401610296565b335f610c1f8561106a565b90505f610c2b8561106a565b90505f868152602081815260408083206001600160a01b038c16845290915290205485811015610cb05760405162461bcd60e51b815260206004820152602a60248201527f455243313135353a20696e73756666696369656e742062616c616e636520666f60448201526939103a3930b739b332b960b11b6064820152608401610296565b5f878152602081815260408083206001600160a01b038d8116855292528083208985039055908a16825281208054889290610cec908490611765565b909155505060408051888152602081018890526001600160a01b03808b16928c821692918816917fc3d58168c5ae7397731d063d5bbf3d657854427343f4c083240f7aacaa2d0f62910160405180910390a4610d4c848a8a8a8a8a6110b3565b505050505050505050565b6001600160a01b0384163b15610a705760405163bc197c8160e01b81526001600160a01b0385169063bc197c8190610d9b90899089908890889088906004016117a5565b6020604051808303815f875af1925050508015610dd5575060408051601f3d908101601f19168201909252610dd291810190611802565b60015b610e8a57610de161181d565b806308c379a003610e1a5750610df5611836565b80610e005750610e1c565b8060405162461bcd60e51b815260040161029691906112ad565b505b60405162461bcd60e51b815260206004820152603460248201527f455243313135353a207472616e7366657220746f206e6f6e2d4552433131353560448201527f526563656976657220696d706c656d656e7465720000000000000000000000006064820152608401610296565b6001600160e01b0319811663bc197c8160e01b14610efb5760405162461bcd60e51b815260206004820152602860248201527f455243313135353a204552433131353552656365697665722072656a656374656044820152676420746f6b656e7360c01b6064820152608401610296565b50505050505050565b5f81815b84518110156105c957610f3482868381518110610f2757610f27611725565b60200260200101516111ae565b915080610f408161174d565b915050610f08565b6001600160a01b038416610fc45760405162461bcd60e51b815260206004820152602160248201527f455243313135353a206d696e7420746f20746865207a65726f2061646472657360448201527f73000000000000000000000000000000000000000000000000000000000000006064820152608401610296565b335f610fcf8561106a565b90505f610fdb8561106a565b90505f868152602081815260408083206001600160a01b038b1684529091528120805487929061100c908490611765565b909155505060408051878152602081018790526001600160a01b03808a16925f92918716917fc3d58168c5ae7397731d063d5bbf3d657854427343f4c083240f7aacaa2d0f62910160405180910390a4610efb835f898989896110b3565b6040805160018082528183019092526060915f91906020808301908036833701905050905082815f815181106110a2576110a2611725565b602090810291909101015292915050565b6001600160a01b0384163b15610a705760405163f23a6e6160e01b81526001600160a01b0385169063f23a6e61906110f790899089908890889088906004016118bf565b6020604051808303815f875af1925050508015611131575060408051601f3d908101601f1916820190925261112e91810190611802565b60015b61113d57610de161181d565b6001600160e01b0319811663f23a6e6160e01b14610efb5760405162461bcd60e51b815260206004820152602860248201527f455243313135353a204552433131353552656365697665722072656a656374656044820152676420746f6b656e7360c01b6064820152608401610296565b5f8183106111c8575f8281526020849052604090206111d6565b5f8381526020839052604090205b9392505050565b80356001600160a01b03811681146111f3575f80fd5b919050565b5f8060408385031215611209575f80fd5b611212836111dd565b946020939093013593505050565b6001600160e01b031981168114611235575f80fd5b50565b5f60208284031215611248575f80fd5b81356111d681611220565b5f60208284031215611263575f80fd5b5035919050565b5f81518084525f5b8181101561128e57602081850181015186830182015201611272565b505f602082860101526020601f19601f83011685010191505092915050565b602081525f6111d6602083018461126a565b634e487b7160e01b5f52604160045260245ffd5b601f8201601f1916810167ffffffffffffffff811182821017156112f9576112f96112bf565b6040525050565b5f67ffffffffffffffff821115611319576113196112bf565b5060051b60200190565b5f82601f830112611332575f80fd5b8135602061133f82611300565b60405161134c82826112d3565b83815260059390931b850182019282810191508684111561136b575f80fd5b8286015b84811015611386578035835291830191830161136f565b509695505050505050565b5f82601f8301126113a0575f80fd5b813567ffffffffffffffff8111156113ba576113ba6112bf565b6040516113d1601f8301601f1916602001826112d3565b8181528460208386010111156113e5575f80fd5b816020850160208301375f918101602001919091529392505050565b5f805f805f60a08688031215611415575f80fd5b61141e866111dd565b945061142c602087016111dd565b9350604086013567ffffffffffffffff80821115611448575f80fd5b61145489838a01611323565b94506060880135915080821115611469575f80fd5b61147589838a01611323565b9350608088013591508082111561148a575f80fd5b5061149788828901611391565b9150509295509295909350565b5f80604083850312156114b5575f80fd5b823567ffffffffffffffff808211156114cc575f80fd5b818501915085601f8301126114df575f80fd5b813560206114ec82611300565b6040516114f982826112d3565b83815260059390931b8501820192828101915089841115611518575f80fd5b948201945b8386101561153d5761152e866111dd565b8252948201949082019061151d565b96505086013592505080821115611552575f80fd5b5061155f85828601611323565b9150509250929050565b5f8151808452602080850194508084015f5b838110156115975781518752958201959082019060010161157b565b509495945050505050565b602081525f6111d66020830184611569565b5f80604083850312156115c5575f80fd5b6115ce836111dd565b9150602083013580151581146115e2575f80fd5b809150509250929050565b5f80602083850312156115fe575f80fd5b823567ffffffffffffffff80821115611615575f80fd5b818501915085601f830112611628575f80fd5b813581811115611636575f80fd5b8660208260051b850101111561164a575f80fd5b60209290920196919550909350505050565b5f806040838503121561166d575f80fd5b611676836111dd565b9150611684602084016111dd565b90509250929050565b5f805f805f60a086880312156116a1575f80fd5b6116aa866111dd565b94506116b8602087016111dd565b93506040860135925060608601359150608086013567ffffffffffffffff8111156116e1575f80fd5b61149788828901611391565b600181811c9082168061170157607f821691505b60208210810361171f57634e487b7160e01b5f52602260045260245ffd5b50919050565b634e487b7160e01b5f52603260045260245ffd5b634e487b7160e01b5f52601160045260245ffd5b5f6001820161175e5761175e611739565b5060010190565b808201808211156102c1576102c1611739565b604081525f61178a6040830185611569565b828103602084015261179c8185611569565b95945050505050565b5f6001600160a01b03808816835280871660208401525060a060408301526117d060a0830186611569565b82810360608401526117e28186611569565b905082810360808401526117f6818561126a565b98975050505050505050565b5f60208284031215611812575f80fd5b81516111d681611220565b5f60033d11156118335760045f803e505f5160e01c5b90565b5f60443d10156118435790565b6040516003193d81016004833e81513d67ffffffffffffffff816024840111818411171561187357505050505090565b828501915081518181111561188b5750505050505090565b843d87010160208285010111156118a55750505050505090565b6118b4602082860101876112d3565b509095945050505050565b5f6001600160a01b03808816835280871660208401525084604083015283606083015260a060808301526118f660a083018461126a565b97965050505050505056fea2646970667358221220175226745f3317c7891a604729d8365a0b48b840614ea2f2c163f7bba9e2686464736f6c63430008140033",
  "linkReferences": {},
  "deployedLinkReferences": {}
}