{
  "_format": "hh-sol-artifact-1",
  "contractName": "MerkleDistributor",
  "sourceName": "contracts/MerkleDistributor.sol",
  "abi": [
    {
      "inputs": [
        {
          "internalType": "address",
          "name": "token_",
          "type": "address"
        },
        {
          "internalType": "bytes32",
          "name": "merkleRoot_",
          "type": "bytes32"
        },
        {
          "internalType": "uint256",
          "name": "dropAmount_",
          "type": "uint256"
        }
      ],
      "stateMutability": "nonpayable",
      "type": "constructor"
    },
    {
      "inputs": [],
      "name": "AlreadyClaimed",
      "type": "error"
    },
    {
      "inputs": [],
      "name": "InvalidProof",
      "type": "error"
    },
    {
      "anonymous": false,
      "inputs": [
        {
          "indexed": true,
          "internalType": "address",
          "name": "account",
          "type": "address"
        },
        {
          "indexed": false,
          "internalType": "uint256",
          "name": "_dropAmount",
          "type": "uint256"
        }
      ],
      "name": "Claimed",
      "type": "event"
    },
    {
      "inputs": [
        {
          "internalType": "bytes32[]",
          "name": "merkleProof",
          "type": "bytes32[]"
        }
      ],
      "name": "claim",
      "outputs": [],
      "stateMutability": "nonpayable",
      "type": "function"
    },
    {
      "inputs": [],
      "name": "dropAmount",
      "outputs": [
        {
          "internalType": "uint256",
          "name": "",
          "type": "uint256"
        }
      ],
      "stateMutability": "view",
      "type": "function"
    },
    {
      "inputs": [],
      "name": "merkleRoot",
      "outputs": [
        {
          "internalType": "bytes32",
          "name": "",
          "type": "bytes32"
        }
      ],
      "stateMutability": "view",
      "type": "function"
    },
    {
      "inputs": [],
      "name": "token",
      "outputs": [
        {
          "internalType": "address",
          "name": "",
          "type": "address"
        }
      ],
      "stateMutability": "view",
      "type": "function"
    }
  ],
  "bytecode": "0x60c060405234801561000f575f80fd5b506040516105b23803806105b283398101604081905261002e91610046565b6001600160a01b0390921660805260a0525f55610085565b5f805f60608486031215610058575f80fd5b83516001600160a01b038116811461006e575f80fd5b602085015160409095015190969495509392505050565b60805160a0516105006100b25f395f8181606e01526101a301525f818160aa015261026401526105005ff3fe608060405234801561000f575f80fd5b506004361061004a575f3560e01c806305748be21461004e5780632eb4a7ab14610069578063b391c50814610090578063fc0c546a146100a5575b5f80fd5b6100565f5481565b6040519081526020015b60405180910390f35b6100567f000000000000000000000000000000000000000000000000000000000000000081565b6100a361009e366004610404565b6100f1565b005b6100cc7f000000000000000000000000000000000000000000000000000000000000000081565b60405173ffffffffffffffffffffffffffffffffffffffff9091168152602001610060565b335f9081526001602052604090205415610137576040517f646cf55800000000000000000000000000000000000000000000000000000000815260040160405180910390fd5b6040516bffffffffffffffffffffffff193360601b1660208201525f906034016040516020818303038152906040528051906020012090506101ce8383808060200260200160405190810160405280939291908181526020018383602002808284375f920191909152507f000000000000000000000000000000000000000000000000000000000000000092508591506103749050565b610204576040517f09bde33900000000000000000000000000000000000000000000000000000000815260040160405180910390fd5b335f81815260016020819052604080832091909155905490517fa9059cbb0000000000000000000000000000000000000000000000000000000081526004810192909252602482015273ffffffffffffffffffffffffffffffffffffffff7f0000000000000000000000000000000000000000000000000000000000000000169063a9059cbb906044016020604051808303815f875af11580156102aa573d5f803e3d5ffd5b505050506040513d601f19601f820116820180604052508101906102ce9190610473565b610338576040517f08c379a000000000000000000000000000000000000000000000000000000000815260206004820152600f60248201527f5472616e73666572206661696c65640000000000000000000000000000000000604482015260640160405180910390fd5b5f5460405190815233907fd8138f8a3f377c5259ca548e70e4c2de94f129f5a11036a15b69513cba2b426a9060200160405180910390a2505050565b5f826103808584610389565b14949350505050565b5f81815b84518110156103cd576103b9828683815181106103ac576103ac610492565b60200260200101516103d5565b9150806103c5816104a6565b91505061038d565b509392505050565b5f8183106103ef575f8281526020849052604090206103fd565b5f8381526020839052604090205b9392505050565b5f8060208385031215610415575f80fd5b823567ffffffffffffffff8082111561042c575f80fd5b818501915085601f83011261043f575f80fd5b81358181111561044d575f80fd5b8660208260051b8501011115610461575f80fd5b60209290920196919550909350505050565b5f60208284031215610483575f80fd5b815180151581146103fd575f80fd5b634e487b7160e01b5f52603260045260245ffd5b5f600182016104c357634e487b7160e01b5f52601160045260245ffd5b506001019056fea2646970667358221220deb229755c5f8c95fe89eac47e18429b65d6ebea7c9aa896582ce26de535943764736f6c63430008140033",
  "linkReferences": {},
  "deployedLinkReferences": {}
}